:020000040800F2
:1000000088060020490100088D280008FF23000809
:1000100089280008210400089D3200080000000023
:10002000000000000000000000000000BD290008E2
:10003000410500080000000091290008BF290008C0
:100040006301000863010008630100086301000800
:1000500063010008630100086301000863010008F0
:1000600063010008630100086301000863010008E0
:1000700063010008630100086301000863010008D0
:1000800063010008630100086301000863010008C0
:1000900063010008630100086301000863010008B0
:1000A00063010008630100086301000863010008A0
:1000B000312A0008412A0008512A0008630100087B
:1000C0006301000863010008630100086301000880
:1000D000630100087D3200088D32000863010008CA
:1000E0006301000863010008630100086301000860
:1000F0006301000863010008630100086301000850
:100100006301000863010008612A00086301000818
:10011000630100086301000863010008630100082F
:10012000630100086301000863010008630100081F
:10013000DFF810D000F062F900480047813700086E
:10014000AFF3008088060020064880470648004735
:10015000FEE7FEE7FEE7FEE7FEE7FEE7FEE7FEE777
:10016000FEE7FEE72D2A000831010008D2B201E0C7
:1001700000F8012B491EFBD270470022F6E710B5AC
:1001800013460A4604461946FFF7F0FF204610BD05
:10019000F0B480EA0102D40F4200B2EB410F02D268
:1001A0000246084611464A0042D0C30DDDB2C1F3F3
:1001B000C752AD1A202D35DAC1F3160141F4000201
:1001C00004B15242C5F1200602FA06F12A41104458
:1001D000B3EBD05F23D0C4B1012DA0EBC35009DC39
:1001E000F0BC4FF0004202EAC352DBB200F500005F
:1001F00000F0D5B8400000F1807000EBC350A0F1D2
:10020000807040EAD170490009E0490841EAC071B4
:10021000A0EBC35000F50000400800EBC350F0BC59
:1002200000F0B4B86142012202EB4101001BF6E785
:10023000F0BC704781F00041AAE780F00040A7E7DA
:1002400080EA010210B502F00043400022D04A00CB
:100250001FD0010E01EB1261C0F35600C2F356022B
:1002600040F4000042F40002A0FB022000047F39A9
:10027000140400D0401C50EA124001D44000491E32
:10028000C2B20C0604EBD010401C4008802A02D0F9
:1002900003E0002010BD20F00100002900DA00205A
:1002A000184310BD30B480EA010202F0004530F07E
:1002B000004221F0004013D090B1C30DD40DC2F321
:1002C0001601C0F31600E41A41F4000140F40002E4
:1002D0007D34914201D3641C00E04900002C02DA15
:1002E00030BC002070474FF400000023914201D33E
:1002F000891A034340084FEA4101F7D151B19142B5
:1003000002D14FF0004105E002D24FF0010101E0BF
:100310006FF0010103EBC450284430BC00F036B844
:10032000C10F80EAE0700844CA079623002100F05C
:1003300036B800F0004220F00040C10DC0F31600B6
:1003400040F400007F2901DA00207047962903DC81
:10035000C1F19601C84001E096398840002AF4D0E6
:1003600040427047002801DBC0F10040002901DB5A
:10037000C1F1004181427047002801DBC0F100401B
:10038000002901DBC1F10041884270470029A8BF64
:100390007047401C490008BF20F00100704710B4AE
:1003A000B0FA80FC00FA0CF050EA010404BF10BC63
:1003B000704749B1CCF1200421FA04F411FA0CF190
:1003C00018BF012121430843A3EB0C01CB1D4FEAC9
:1003D00000614FEA102042BF002010BC704700EBC4
:1003E000C35010440029A4BF10BC7047401C4900F2
:1003F00008BF20F0010010BC70470000064C074DFC
:1004000006E0E06840F0010394E8070098471034E4
:10041000AC42F6D3FFF790FE783F0008983F000803
:1004200000BFFEE710B54FF480510C4800F040FBD0
:1004300090B9142000F088F94FF48051074800F07B
:1004400037FB48B900BF4FF48051044800F030FB3F
:100450000028F8D0012010BD0020FCE7000C01406E
:1004600010B54FF400510C4800F022FB90B9142055
:1004700000F06AF94FF40051074800F019FB48B941
:1004800000BF4FF40051044800F012FB0028F8D0E0
:10049000012010BD0020FCE7000C014010B54FF416
:1004A00080410C4800F004FB90B9142000F04CF996
:1004B0004FF48041074800F0FBFA48B900BF4FF401
:1004C0008041044800F0F4FA0028F8D0012010BD63
:1004D0000020FCE7000C014010B54FF400410C482F
:1004E00000F0E6FA90B9142000F02EF94FF4004124
:1004F000074800F0DDFA48B900BF4FF40041044856
:1005000000F0D6FA0028F8D0012010BD0020FCE74A
:10051000000C01407047704710B50122D10302481A
:1005200000F0CEFA10BD00000014014010B500220A
:100530004FF40041014800F0C3FA10BD001401401F
:10054000704772B600BFFEE70146002291F8210015
:10055000022808D00420886300BF002081F8200012
:1005600000BF012070470868006820F00E000B688B
:1005700018600868006820F001000B68186091F8A6
:10058000403001209840CB6B5860012081F8210059
:1005900000BF002081F8200000BF1046E2E7000005
:1005A00070B50446002594F82100022803D00420E9
:1005B000A0630125C1E02068006820F00E002168DA
:1005C00008602068006820F00100216808605C492C
:1005D0002068884252D95A4978392068884201D126
:1005E000012047E0564964392068884201D1102033
:1005F00040E0534950392068884201D1801539E0E4
:100600004F493C392068884201D1801432E04C497E
:1006100028392068884202D14FF480302AE04849C6
:1006200014392068884202D14FF4801022E04449F6
:100630002068884201D140041CE042492068884279
:1006400001D1012016E03F4914312068884201D1D0
:1006500010200FE03B4928312068884201D18015E5
:1006600008E038493C312068884201D1801401E01B
:100670004FF480303349091F086051E03049783920
:100680002068884201D1012047E02D496439206863
:10069000884201D1102040E0294950392068884221
:1006A00001D1801539E026493C392068884201D1C2
:1006B000801432E0224928392068884202D14FF460
:1006C00080302AE01E4914392068884202D14FF454
:1006D000801022E01A492068884201D140041CE0C1
:1006E00018492068884201D1012016E015491431CB
:1006F0002068884201D110200FE01249283120687B
:10070000884201D1801508E00E493C3120688842BA
:1007100001D1801401E04FF48030094980394860EC
:10072000012084F8210000BF002084F8200000BFD1
:10073000606B10B12046616B8847284670BD000091
:10074000800002400804024070B5044600F0BEF983
:1007500006462546681C10B104480078054400BFD1
:1007600000F0B4F9801BA842FAD370BDCC00002081
:100770002DE9F847024600239C467BE14FF0010833
:1007800008FA03F4D1F8008008EA0400A0427DD101
:10079000DFF8F4A2D1F80480A8EB0A09D0453AD0DA
:1007A00014DCB8F1030F50D009DCB8F1000F31D0E0
:1007B000B8F1010F1CD0B8F1020F49D120E0B8F117
:1007C000110F18D0B8F1120F42D11EE0B9F5881FF1
:1007D00025D006DCB9F5803F20D0B9F5801F37D190
:1007E0001AE0B9F5001F18D0B9F5041F30D117E091
:1007F000D1F80CC02DE0D1F80C8008F1040C28E0F1
:10080000D1F80C8008F1080C23E0D1F80C8008F135
:100810000C0C1EE000BF00BF00BF00BF00BF00BF48
:10082000D1F80880B8F1000F02D14FF0040C0BE0B2
:10083000D1F80880B8F1010F03D14FF0080C146112
:1008400002E04FF0080C546103E04FF0000C00E0B0
:1008500000BF00BFFF2801D8904601E002F1040864
:100860004646FF2802D84FEA830803E0A3F10808B0
:100870004FEA88084746D6F800804FF00F0909FA7A
:1008800007F928EA09080CFA07F900E07AE048EAD3
:100890000908C6F80080D1F8048008F08058B8F143
:1008A000805F6FD100BFDFF8E481D8F8188048F08E
:1008B0000108DFF8D891C9F81880C846D8F8188020
:1008C00008F00108CDF8008000BF00BF4FEAB9383A
:1008D0004FEA930958F829504FEA83784FEA18797C
:1008E0004FF00F0808FA09F825EA0805DFF8A0819B
:1008F000424502D14FF0000824E0DFF898814245DC
:1009000002D14FF001081DE0DFF88C81424502D191
:100910004FF0020816E0DFF88481424502D14FF023
:1009200003080FE0DFF87881424502D14FF0040858
:1009300008E0DFF87081424502D14FF0050801E080
:100940004FF006084FEA83794FEA197908FA09F857
:1009500048EA0505DFF850814FEA930948F8295025
:10096000D1F8048008F48018B8F5801F0BD1DFF8A7
:100970003C81D8F8008048EA0008DFF83091C9F8D7
:1009800000800AE075E0DFF82481D8F8008028EACA
:100990000008DFF81891C9F80080D1F8048008F445
:1009A0000018B8F5001F0ED1DFF8008108F1040827
:1009B000D8F8008048EA0008DFF8F09009F104094F
:1009C000C9F800800DE0DFF8E48008F10408D8F8E9
:1009D000008028EA0008DFF8D49009F10409C9F87A
:1009E0000080D1F8048008F40038B8F5003F0ED13B
:1009F000DFF8B880A8F10408D8F8008048EA0008B9
:100A0000DFF8A890A9F10409C9F800800DE0DFF82B
:100A10009C80A8F10408D8F8008028EA0008DFF8D4
:100A20008C90A9F10409C9F80080D1F8048008F479
:100A30008038B8F5803F0ED1DFF87080A8F1080843
:100A4000D8F8008048EA0008DFF86090A9F10809AA
:100A5000C9F800800DE0DFF85480A8F10808D8F844
:100A6000008028EA0008DFF84490A9F10809C9F8D5
:100A700000805B1CD1F8008028FA03F8B8F1000F61
:100A80007FF47CAEBDE8F887000011100010024032
:100A900000080140000C014000100140001401401A
:100AA00000180140001C01400800014008040140FA
:100AB000024693680B400BB1012000E00020704714
:100AC0000AB1016101E00B0403617047014800684D
:100AD00070470000C40000200348006803490978FB
:100AE0000844014908607047C4000020CC00002081
:100AF00010B50848006840F010000649086003205F
:100B000000F0ACF8032000F007F800F02BF800200C
:100B100010BD00000020024070B504460E48007869
:100B20004FF47A71B1FBF0F00C490968B1FBF0F5B4
:100B3000284600F0FDFB08B1012070BD102C07D243
:100B400000222146501E00F04BF80548046001E0E9
:100B50000120F2E70020F0E7CC000020D0000020C8
:100B6000C800002008B500BF1348806940F00100AC
:100B7000114988610846806900F00100009000BFBB
:100B800000BF00BF0846C06940F08050C8610846F9
:100B9000C06900F08050009000BF00BF052000F049
:100BA0005DF800BF0549486820F0E06040F0007043
:100BB000486000BF08BD0000001002400000014076
:100BC00001460846002809DB00F01F0301229A4075
:100BD00043099B0003F1E023C3F8002100BF7047E5
:100BE0002DE9F05F80460D461646002702F058FBBF
:100BF000074639462A46334601F00700C0F1070A86
:100C0000BAF1040F02D94FF0040A01E0C0F1070A5B
:100C1000D14600F1040ABAF1070F02D24FF0000AE0
:100C200001E0A0F1030AD4464FF0010A0AFA09FADA
:100C3000AAF1010A0AEA020A0AFA0CFA4FF0010BB9
:100C40000BFA0CFBABF1010B0BEA030B4AEA0B04AA
:100C50002146404602F02CFBBDE8F09F00BF00F0AB
:100C60000702064B19684FF6FF031940044B0B436C
:100C700043EA0221014B196000BF70470CED00E010
:100C80000000FA0570B504460D460CB9012070BD90
:100C90005A48006800F00700A8420ED25748006882
:100CA00020F007002843554908600846006800F016
:100CB0000700A84201D00120E9E7207800F00200F7
:100CC00002281DD1207800F00400042805D14C48EA
:100CD000406840F4E0604A494860207800F008002D
:100CE000082805D14648406840F4605044494860AF
:100CF0004348406820F0F000A1680843404948603C
:100D0000207800F0010078B36068012806D13C48E3
:100D1000006800F4003090B90120B8E7606802284C
:100D200006D13748006800F0007040B90120AEE7F6
:100D30003348006800F0020008B90120A7E73048F6
:100D4000406820F00300616808432D494860FFF7C0
:100D5000BDFE064609E0FFF7B9FE801B41F288316F
:100D6000884202D9032092E707E02548406800F056
:100D70000C006168B0EB810FEDD12048006800F0F5
:100D80000700A8420ED91D48006820F0070028433C
:100D90001A4908600846006800F00700A84201D020
:100DA000012074E7207800F00400042807D11448DB
:100DB000406820F4E060E168084311494860207809
:100DC00000F00800082808D10D48406820F4605061
:100DD000216940EAC1000A49486000F03FF808492B
:100DE0004968C1F30311074A515CC84006490860CD
:100DF00006480068FFF790FE002048E70020024008
:100E0000001002405E3F0008D0000020C800002013
:100E10000148006870470000D000002000B5FFF7CF
:100E2000F7FF04494968C1F30221034A515CC840F5
:100E300000BD0000001002406E3F000800B5FFF743
:100E4000E7FF04494968C1F3C221034A515CC84025
:100E500000BD0000001002406E3F000870B5002188
:100E60000022002400230020134D696801F00C05C6
:100E7000F5B1042D02D0082D19D101E00F4819E079
:100E80000F4DC1F38346AB5D01F4803555B10A4D7A
:100E90006D68C5F340450B4E725D084D5D43B5FB73
:100EA000F2F402E0084D03FB05F4204602E000BF27
:100EB000024800BF00BF70BD0010024000127A005F
:100EC0004C3F00085C3F000800093D00F8B50446AF
:100ED0000CB90120F8BD207800F00100002878D07E
:100EE000F848406800F00C0004280CD0F548406831
:100EF00000F00C00082811D1F248406800F480305E
:100F0000B0F5803F0AD1EF48006800F400300028B7
:100F10005FD0606800285CD10120DBE700BF60681B
:100F2000B0F5803F06D1E748006840F48030E549DD
:100F3000086028E0606858B9E248006820F4803012
:100F4000E04908600846006820F4802008601AE044
:100F50006068B0F5A02F0BD1DA48006840F480201B
:100F6000D84908600846006840F4803008600AE00C
:100F7000D448006820F48030D249086008460068F0
:100F800020F48020086000BF606888B1FFF79EFDF4
:100F9000054606E0FFF79AFD401B642801D90320AF
:100FA00098E7C848006800F400300028F2D010E04C
:100FB000FFF78CFD054606E0FFF788FD401B64281F
:100FC00001D9032086E7BF48006800F400300028FC
:100FD000F2D1207800F00200022857D1B9484068C9
:100FE00000F00C0050B1B748406800F00C00082831
:100FF00018D1B448406800F4803098B9B14800680E
:1010000000F0020020B12069012801D0012061E731
:10101000AC48006820F0F800616940EAC100A949C5
:10102000086033E02069E8B10120A7490860FFF7B4
:101030004DFD054606E0FFF749FD401B022801D99A
:10104000032047E79F48006800F002000028F2D024
:101050009C48006820F0F800616940EAC1009949A5
:10106000086013E0002098490860FFF72FFD05464F
:1010700006E0FFF72BFD401B022801D9032029E7DA
:101080009048006800F002000028F2D1207800F0BB
:10109000080008282DD1A069B8B101208B4908604B
:1010A000FFF714FD054606E0FFF710FD401B022880
:1010B00001D903200EE78348406A00F002000028AF
:1010C000F2D0012001F066FC13E000207F490860A7
:1010D000FFF7FCFC054606E0FFF7F8FC401B022882
:1010E00001D90320F6E67748406A00F002000028A4
:1010F000F2D1207800F00400042873D10027714851
:10110000C06900F0805070B900BF6E48C06940F0FF
:1011100080506C49C8610846C06900F0805000905A
:1011200000BF00BF01276A48006800F48070B0B9B2
:101130006748006840F4807065490860FFF7C6FCA6
:10114000054606E0FFF7C2FC401B642801D90320D6
:10115000C0E65F48006800F480700028F2D000BF4D
:10116000E068012806D15748006A40F0010055495F
:10117000086227E0E06858B95248006A20F0010090
:10118000504908620846006A20F00400086219E02D
:10119000E06805280BD14B48006A40F0040049493B
:1011A00008620846006A40F0010008620AE045480B
:1011B000006A20F00100434908620846006A20F0F6
:1011C0000400086200BFE068A0B1FFF77FFC05469D
:1011D00009E0FFF77BFC401B41F28831884202D9CD
:1011E000032077E622E03748006A00F0020000287A
:1011F000EFD012E0FFF76AFC054608E0FFF766FC57
:10120000401B41F28831884201D9032062E62D4813
:10121000006A00F002000028F0D1012F05D1294812
:10122000C06920F080502749C86100BFE069C8B399
:101230002448406800F00C00082860D0E0690228CB
:1012400048D1002020490866FFF740FC054606E02B
:10125000FFF73CFC401B022801D903203AE619485D
:10126000006800F000700028F2D1206AB0F5803FDD
:1012700007D11448406820F40030A16808431149A0
:101280004860D4E9080108430E49496821F4741103
:1012900008430C49486001200B490866FFF716FC1B
:1012A000054607E03DE0FFF711FC401B022801D98D
:1012B00003200FE60348006800F000700028F2D019
:1012C0002FE0000000100240000042428004424231
:1012D00000700040002014490866FFF7F7FB054640
:1012E00006E0FFF7F3FB401B022801D90320F1E5DC
:1012F0000E48006800F000700028F2D111E0E069AB
:10130000012800D1E6E50948466806F48031206AE4
:10131000814204D106F47011606A814201D001203B
:10132000D8E50020D6E5000000004242001002404F
:1013300070B504462546681EB0F1807F01D30120B8
:101340000FE0681E4FF0E02148610F214FF0FF30A1
:1013500001F0AEFF00204FF0E02188610720086116
:10136000002070BD7047704730B502460B4600BF85
:1013700092F83C00012801D1022030BD012082F802
:101380003C0000BF022082F83D00106844681068ED
:10139000816824F070041868044310684460144D98
:1013A0001068A84213D0134D1068A8420FD01068DF
:1013B000B0F1804F0BD0104D1068A84207D00F4DF0
:1013C0001068A84203D00E4D1068A84205D121F044
:1013D00080015868014310688160012082F83D0057
:1013E00000BF002082F83C0000BF00BFC5E700003E
:1013F000002C01400034014000040040000800407F
:10140000000C004010B504460CB9012010BD94F842
:101410003D0028B9002084F83C00204600F026F862
:10142000022084F83D00211D206801F021FB0120ED
:1014300084F8460000BF84F83E0001213F2001559A
:10144000402001554120015500BF00BF012084F814
:10145000420043200155442001554520015500BF5D
:10146000012084F83D000020D0E7000038B5044694
:101470002068B0F1804F16D100BF1848C06940F015
:1014800001001649C8610846C06900F001000090DB
:1014900000BF00BF002211461C20FFF7A1FB1C204B
:1014A000FFF78EFB19E00E492068884215D100BF76
:1014B0000A48C06940F008000849C8610846C06988
:1014C00000F00800009000BF00BF0022114632204B
:1014D000FFF786FB3220FFF773FB38BD0010024098
:1014E000000C0040014691F83D00012801D0012088
:1014F0007047022081F83D000868C06840F0010094
:101500000B68D860164B0868984213D0154B0868D2
:1015100098420FD00868B0F1804F0BD0124B08688A
:10152000984207D0114B0868984203D0104B0868C6
:1015300098420CD10868806800F00702062A0CD097
:101540000868006840F001000B68186005E0086852
:10155000006840F001000B6818600020C8E7000038
:10156000002C01400034014000040040000800400D
:10157000000C00402DE9F04104460D46002700BF55
:1015800094F83C00012802D10220BDE8F08101203E
:1015900084F83C0000BF022084F83D002068866883
:1015A00026F0770626F47F46206886602868502853
:1015B00033D00CDC202850D004DC00284BD010287D
:1015C00051D149E0302849D040284CD139E0602839
:1015D0002DD0702807D0B0F5805F03D0B0F5005F44
:1015E00041D10DE041E0D5E902136A68206801F0BD
:1015F000A6FA2068866846F077062068866034E0A0
:10160000D5E902136A68206801F099FA20688068B9
:1016100040F480402168886027E0EA6869682068B3
:1016200001F07EFB5021206801F094FA1DE0EA6889
:101630006968206801F087FB6021206801F08AFA60
:1016400013E0EA686968206801F06AFB40212068BD
:1016500001F080FA09E000BF00BF00BF29682068E0
:1016600001F078FA01E0012700BF00BF012084F8F3
:101670003D0000BF002084F83C0000BF384684E7EE
:101680002DE9F04104460D4614B90120BDE8F08172
:1016900094F83D0028B9002084F83C00204600F072
:1016A00051F8022084F83D002068806844F2070168
:1016B000884321688860211D206801F0D9F92068DD
:1016C000D0F80880206886692068076A286840EAA0
:1016D000080840F203308643A969A86840EA01205F
:1016E000064340F60C4086434FF2F0008643E9691A
:1016F000E86840EA0120064328690001296A40EAB7
:101700000130064327F022076969686840EA011042
:1017100007432068C0F80880206886612068076257
:10172000012084F8460084F83E0001213F20015545
:10173000012084F8420043200155012084F83D0037
:101740000020A3E710B586B0044600200290039065
:10175000049005903C492068884238D100BF3B483E
:10176000C06940F002003949C8610846C06900F00C
:101770000200019000BF00BF00BF0846806940F032
:10178000100088610846806900F01000019000BFD9
:1017900000BFC0200290002003900120049002A905
:1017A0002B48FEF7E5FF00BF2A49486820F4406057
:1017B00040F0E06040F44060486000BF0022114605
:1017C0001D20FFF70DFA1D20FFF7FAF93AE0224934
:1017D0002068884236D100BF1C48C06940F0040030
:1017E0001A49C8610846C06900F00400019000BFB2
:1017F00000BF00BF0846806940F0200088610846AD
:10180000806900F02000019000BF00BF4FF44050FD
:101810000290002003900120049002A90F48FEF7D7
:10182000A7FF00BF0B49486840F0E06040F48050DB
:10183000486000BF002211461E20FFF7D1F91E208C
:10184000FFF7BEF906B010BD0004004000100240D2
:101850000010014000000140000800400014014059
:101860002DE9F04304460D4694F83E603F20075DA5
:1018700094F84280432010F804906DB9012E02D1F3
:10188000B8F1010F02D00120BDE8F083022084F8F6
:101890003E0084F8420025E0042D0CD1012F02D136
:1018A000B9F1010F01D00120EEE702213F200155DF
:1018B0004320015516E0012E07D1012F05D1B8F1C3
:1018C000010F02D1B9F1010F01D00120DCE70220A4
:1018D00084F83E0002213F200155022084F8420096
:1018E0004320015515B1042D0CD105E00122002142
:1018F000206801F013F910E001220421206801F0B2
:101900000DF90AE001220021206801F007F9012207
:101910000421206801F002F900BF00BF20680068C0
:1019200040F00100216808600020ADE7704770B505
:1019300004462068C5682068066906F0020002288F
:1019400019D105F00200022815D1401F2168086155
:10195000012020772068806900F0030018B120463C
:10196000FFF7E4FF05E0204600F0C2F8204600F053
:1019700076F90020207706F00400042819D105F03C
:101980000400042815D1C043216808610220207793
:101990002068806900F4407018B12046FFF7C6FF48
:1019A00005E0204600F0A4F8204600F058F9002099
:1019B000207706F00800082819D105F0080008284B
:1019C00015D1C04321680861042020772068C069D0
:1019D00000F0030018B12046FFF7A8FF05E02046FD
:1019E00000F086F8204600F03AF90020207706F053
:1019F0001000102819D105F01000102815D1C0438F
:101A000021680861082020772068C06900F44070D0
:101A100018B12046FFF78AFF05E0204600F068F87D
:101A2000204600F01CF90020207706F0010048B1A4
:101A300005F0010030B16FF0010021680861204617
:101A400000F088F906F08000802809D105F08000B8
:101A5000802805D1C043216808612046FFF782FC39
:101A600006F04000402809D105F04000402805D18B
:101A7000C04321680861204600F004FA06F0200007
:101A8000202809D105F02000202805D1C043216875
:101A900008612046FFF767FC70BD000010B586B0F6
:101AA0000446002002900390049005902068B0F155
:101AB000804F17D100BF0C48806940F004000A49EC
:101AC00088610846806900F00400019000BF00BFF3
:101AD0000C200290022003900320059002A90348E5
:101AE000FEF746FE06B010BD00100240000801409F
:101AF00070472DE9F04104460D461646002700BF09
:101B000094F83C00012802D10220BDE8F0810120B8
:101B100084F83C0000BF36B1042E1BD0082E31D013
:101B20000C2E5ED145E02946206801F01DF82068A2
:101B3000806940F00800216888612068806920F091
:101B40000400216888612068806929690843216848
:101B5000886148E02946206801F03EF820688069E5
:101B600040F40060216888612068806920F480600A
:101B70002168886120688069296940EA012021681C
:101B8000886130E02946206801F064F82068C06967
:101B900040F008002168C8612068C06920F0040096
:101BA0002168C8612068C069296908432168C86143
:101BB00019E02946206801F089F82068C06940F4DE
:101BC00000602168C8612068C06920F480602168D5
:101BD000C8612068C069296940EA01202168C8619C
:101BE00001E0012700BF00BF00BF002084F83C00D7
:101BF00000BF384689E710B504460CB9012010BD76
:101C000094F83D0028B9002084F83C00204600F0FC
:101C100025F8022084F83D00211D206800F028FFEF
:101C2000012084F8460000BF84F83E0001213F20D7
:101C30000155402001554120015500BF00BF012042
:101C400084F84200432001554420015545200155A8
:101C500000BF012084F83D000020D0E770477047A6
:101C600070B504460D4615B994F83E000BE0042DFE
:101C700002D13F20005D06E0082D02D14020005D2A
:101C800001E04120005D012801D0012070BD1DB997
:101C9000022084F83E000EE0042D03D102213F20F3
:101CA000015508E0082D03D102214020015502E032
:101CB00002214120015501222946206800F02EFF13
:101CC0001F492068884203D01E492068884201D1FC
:101CD000012000E0002028B12068406C40F4004062
:101CE0002168486416492068884213D01549206845
:101CF00088420FD02068B0F1804F0BD01249206885
:101D0000884207D011492068884203D010492068D2
:101D100088420CD12068806800F00706062E0CD09F
:101D20002068006840F001002168086005E0206834
:101D3000006840F00100216808600020A6E700006C
:101D4000002C014000340140000400400008004025
:101D5000000C0040FEB504463F492068884200D090
:101D6000FEBD3E480088401C80B23C4908800428E3
:101D700005DA6FF001003A4909680861F0E70020D0
:101D80003649088037480068406A00B23649086022
:101D900036480068406A00B240423549086035481C
:101DA0000068314909680844324908602E480068D3
:101DB00001F0A1FA06462E48006801F09CFA351899
:101DC00005EBD5702C49096801EB60002A490860D1
:101DD0006A4601A902A800F015FB284800780528EA
:101DE00017D2DFE800F01703070B0C00009801F092
:101DF00067FF12E0009801F089FF0EE000BF009835
:101E000001F0BCFD1D48007810B1009801F076FD8E
:101E100003E000BF01F04EFD00BF00BF184800887E
:101E200000280BDD16480088401E1549088008462A
:101E3000008818B900F050FBFEF76EFB002009493E
:101E400009684862094909684862801E04490968AE
:101E5000086100BF84E70000000C0040BE000020C5
:101E6000AC0100201C0100201C00002064010020A7
:101E70002000002024000020B8000020A000002046
:101E8000BC00002070477047704700002DE9F84FF4
:101E90000446206805682068C668206847694FF0D6
:101EA0000009CA4605F00F09B9F1000F0AD105F083
:101EB000200038B106F0200020B1204601F092F851
:101EC000BDE8F88FB9F1000F7BD007F0010018B919
:101ED00006F49070002874D005F0010030B106F4CB
:101EE000807018B1606C40F00100606405F004007F
:101EF00030B107F0010018B1606C40F0020060647E
:101F000005F0020030B107F0010018B1606C40F03C
:101F10000400606405F0080048B106F0200010B924
:101F200007F0010018B1606C40F008006064606C5C
:101F3000002845D005F0200028B106F0200010B19F
:101F4000204601F04FF820684069C0F3801A606CA9
:101F500000F0080010B9BAF1000F2CD0204600F0B4
:101F6000FBFF2068406900F0400000B300BF00BFE5
:101F70002168143151E8001F21F04000216814311C
:101F800041E80002002AF3D100BFE06B50B177486E
:101F9000E16B4863E06BFEF703FB88B1E06B416BDC
:101FA00088470DE02046FFF76FFF09E009E0204673
:101FB000FFF76AFF04E02046FFF766FF0020606439
:101FC0007EE7206B012877D105F01000002873D040
:101FD00006F010000028FAD000BF00200090206812
:101FE0000068009020684068009000BF00BF206833
:101FF000406900F0400000285FD0E06B0068406856
:102000001FFA80F8B8F1000F55D0A08D404552DD81
:10201000A4F82E80E06B8069202843D000BF00BF69
:1020200021680C3151E8001F21F4807021680C31C7
:1020300041E80002002AF3D100BF00BF00BF2168C1
:10204000143151E8001F21F001002168143141E8EA
:102050000002002AF3D100BF00BF00BF2168143185
:1020600051E8001F21F040002168143141E80002CE
:10207000002AF3D100BF202084F842000020206312
:1020800000BF00BF21680C3151E8001F21F0100093
:1020900021680C3141E80002002AF3D100BFE06B57
:1020A000FEF752FA02206063A08DE28D801A81B2A1
:1020B0002046FFF7E8FE03E742E0A08DE18D401ADD
:1020C0001FFA80F8E08DD0B3B8F1000F37D000BF11
:1020D00000BF21680C3151E8001F21F49070216885
:1020E0000C3141E80002002AF3D100BF00BF00BF5D
:1020F0002168143151E8001F21F0010021681431DA
:1021000041E80002002AF3D100BF202084F84200F9
:102110000020206300BF00BF21680C3151E8001F80
:1021200021F0100021680C3141E80002002AF3D1AF
:1021300000BF0220606341462046FFF7A4FEBFE6D1
:1021400005F0800030B106F0800018B1204601F0A3
:1021500065F8B5E605F0400030B106F0400018B172
:10216000204600F02FFFABE600BFA9E6452F000890
:1021700010B504460CB9012010BDA06900B100E003
:1021800000BF94F8410028B9002084F840002046A0
:1021900000F02AF8242084F841002068C06820F468
:1021A00000502168C860204600F09AFF206800694E
:1021B00020F49040216808612068406920F02A00DE
:1021C000216848612068C06840F400502168C860F8
:1021D00000206064202084F8410084F84200002040
:1021E000606300BFC8E7000010B586B00446002059
:1021F000029003900490059040492068884237D1AE
:1022000000BF3F48806940F480403D4988610846EE
:10221000806900F48040019000BF00BF00BF084605
:10222000806940F0040088610846806900F004007D
:10223000019000BF00BF48150290022003900320C8
:10224000059002A92F48FEF793FA4FF480600290A0
:1022500000200390049002A92A48FEF789FA002280
:1022600011462520FEF7BCFC2520FEF7A9FC42E024
:102270002549206888423ED100BF2148C06940F40A
:1022800000301F49C8610846C06900F40030019061
:1022900000BF00BF00BF0846806940F02000886191
:1022A0000846806900F02000019000BF00BF202098
:1022B0000290022003900320059002A91348FEF724
:1022C00057FA4020029000200390049002A90F4882
:1022D000FEF74EFA00BF0E49486840F0E06040F05B
:1022E0000800486000BF002211462620FEF778FC57
:1022F0002620FEF765FC06B010BD00000038014046
:102300000010024000080140004400400014014059
:102310000000014070B504460D46164694F8420090
:1023200020280BD105B10EB9012070BD002020631B
:1023300032462946204600F051FFF6E70220F4E736
:1023400070B5044625492068884246D12448007863
:1023500000F07AF800283BD022490978214A5278C7
:1023600041EA022108B2FDF7DBFF06464FF08E413D
:10237000FDF798FF05461C49FDF762FF1B49086001
:1023800018498978174AD27841EA022108B2FDF744
:10239000C7FF06464FF08E41FDF784FF0546124900
:1023A000FDF74EFF124908600E4909790D4A52792E
:1023B00041EA022108B2FDF7B3FF06464FF08E4115
:1023C000FDF770FF05460849FDF73AFF0949086027
:1023D000012203490848FFF79DFF70BD0038014006
:1023E0000800002000000020000034430C00002002
:1023F0001000002014000020F4010020704700BFEE
:10240000FEE70000044B1B680360044B1B680B6075
:10241000034B1B68136070470C0000201000002065
:102420001400002010B50548002101604160012220
:1024300003490448FFF76EFF10BD000000000020B4
:1024400008000020F401002001461F48007830B148
:1024500001280AD002281BD003282ED128E05529B4
:1024600002D10120184A10702BE0532906D1002018
:10247000164A10700220144A107008E0552903D142
:102480000120114A107002E000200F4A107018E07D
:102490000E4802780078401C0C4B18700C48815490
:1024A00018460078072802DB0320074A107008E06E
:1024B0000020054A1070012070470020024A107069
:1024C00000BF00BF0020F7E718000020190000201F
:1024D000000000207047000010B500224FF480413A
:1024E0000148FEF7EDFA10BD0014014010B50122BD
:1024F00091030248FEF7E4FA10BD00000014014009
:1025000000B585B00020019002900390049000BFB8
:102510003748806940F01000354988610846806975
:1025200000F01000009000BF00BF00BF08468069A7
:1025300040F0040088610846806900F004000090C3
:1025400000BF00BF00BF0846806940F008008861F6
:102550000846806900F00800009000BF00BF00BF7F
:102560000846806940F0200088610846806900F0D4
:102570002000009000BF00BF012250211D48FEF73F
:102580009FFA0022A0211B48FEF79AFA00224FF47E
:1025900080411948FEF794FA0122D1031648FEF74C
:1025A0008FFAF02001900120029000200390032078
:1025B000049001A90F48FEF7DBF84FF2F8300190C4
:1025C000002002900120039001A90C48FEF7D0F8EA
:1025D0004FF440400190012002900020039002201F
:1025E000049001A90448FEF7C3F805B000BD00003F
:1025F000001002400008014000140140000C01409E
:1026000000B58DB0002009900A900B900C900790B7
:1026100008901C216846FDF7B0FD4FF0804023492B
:102620000860232048600021204881606321C16048
:102630000021016180218161FEF7E4FE08B1FDF710
:1026400080FF4FF48050099009A91848FEF792FFC7
:1026500008B1FDF776FF1548FFF7CDFA08B1FDF791
:1026600070FF00200790089007A91048FEF77CFE35
:1026700008B1FDF766FF60200090002001900290F5
:102680000490082269460948FFF733FA08B1FDF7BC
:1026900058FF0C2269460548FFF72BFA08B1FDF7F1
:1026A00050FF0248FFF7FAF90DB000BDD40000203A
:1026B00000B58BB0242102A8FDF75FFD002000903B
:1026C0000190184818490860002048600021164809
:1026D00081604FF6FE71C1600021016181610320BC
:1026E00002900020039001200490002005900690A5
:1026F000079001200890002009900A9002A90A483A
:10270000FEF7BEFF08B1FDF71CFF0020009001900E
:1027100069460548FEF728FE08B1FDF712FF0BB029
:1027200000BD0000000400401C01002000B58BB07B
:10273000242102A8FDF721FD0020009001901848F7
:1027400018490860002048600021164881604FF653
:10275000FE71C160002101618161032002900020AF
:10276000039001200490002005900690079001201E
:102770000890002009900A9002A90A48FEF780FFFD
:1027800008B1FDF7DEFE0020009001906946054883
:10279000FEF7EAFD08B1FDF7D4FE0BB000BD000066
:1027A000000800406401002000B587B000200390BD
:1027B0000490059006900190029015481549086014
:1027C00040F2CF20486000211248816040F2E7319A
:1027D000C160002101618161FEF714FE08B1FDF7BF
:1027E000B0FE4FF48050039003A90A48FEF7C2FEE2
:1027F00008B1FDF7A6FE00200190029001A905484E
:10280000FEF7B2FD08B1FDF79CFE07B000BD000069
:10281000000C0040AC01002010B50B480B490860CB
:102820004FF4E1304860002108488160C1600161D7
:102830000C21416100218161C161FFF799FC08B160
:10284000FDF77FFE10BD000000380140F4010020BC
:1028500010B50B480B4908604FF4E1304860002187
:1028600008488160C16001610C21416100218161E2
:10287000C161FFF77DFC08B1FDF763FE10BD0000EC
:10288000004400403C02002000BFFEE700BFFEE71E
:102890002DE9F0410446A069E061D4E90001FDF7AB
:1028A000C9FCA06100212069FDF75CFD37D0A0695B
:1028B00020F000463046616BFDF75EFD01D8002533
:1028C00015E03046A16BFDF74DFD02D84FF07E5567
:1028D0000DE0D4E90D01FDF7ADFC07463146606B14
:1028E000FDF7A8FC80463946FDF7DCFC0546284686
:1028F000A169FDF7A5FC0746216AFDF749FC2062A6
:10290000E16A206AFDF738FD01D2E06A2062216B9E
:10291000206AFDF727FD01D2206B206201E0002034
:102920002062D4E90601FDF785FC07466169FDF7E1
:1029300087FC0546216A2069FDF782FC0746A169EC
:10294000E068FDF77DFC80463946FDF721FC064630
:102950002946FDF71DFCA060616AA068FDF70CFD2B
:1029600001D2606AA060A16AA068FDF7FBFC01D2F9
:10297000A06AA060BDE8F08101490968C86370479A
:10298000D40000200149096808647047D400002081
:102990007047000008B508490968C9084FF47A7201
:1029A000B1FBF2F14143009100BF00BF00994A1E04
:1029B00000920029F9D108BDD0000020704710B561
:1029C000FEF78AF810BD00B58FB0282105A8FDF7E5
:1029D000D4FB14216846FDF7D0FB012005900004CC
:1029E0000690002007900120099002200C90C1035E
:1029F0000D914FF4E0110E9105A8FEF767FA08B1AA
:102A0000FDF79FFD0F200090022001900020029012
:102A10004FF4806003900020049002216846FEF786
:102A200031F908B1FDF78DFD0FB000BD7047000012
:102A300010B50248FEF77BFF10BD0000D400002057
:102A400010B50248FEF773FF10BD00001C01002006
:102A500010B50248FEF76BFF10BD000064010020B6
:102A600010B50248FEF763FF10BD0000AC01002066
:102A700010B50268244B98420ED0244B98420BD0DC
:102A8000B0F1804F08D0224B984205D0214B98429C
:102A900002D0214B984203D122F070024B681A43B6
:102AA000194B98420ED0194B98420BD0B0F1804F81
:102AB00008D0174B984205D0164B984202D0164BBF
:102AC000984203D122F44072CB681A4322F080036B
:102AD0004C6943EA040202608B68C3620B6883623C
:102AE000094B984202D0094B984201D10B6903630C
:102AF00001234361036903F001031BB1036923F060
:102B00000103036110BD0000002C014000340140AE
:102B10000004004000080040000C004030B501F007
:102B20001F05012404FA05F3046A9C430462046A45
:102B300001F01F0502FA05F52C43046230BD30B5E3
:102B40000C46816821F47F4142EA0325254329434D
:102B5000816030BD0A46816821F0700142F00703B0
:102B6000194381607047000030B5026A056A25F09C
:102B7000010505624368846924F0700424F00304AD
:102B80000D682C4322F002028D682A43104DA842A2
:102B900000D103E00F4DA84206D100BF22F0080289
:102BA000CD682A4322F00402094DA84202D0094D03
:102BB000A84207D123F4807323F400734D692B439B
:102BC0008D692B43436084614D684563026230BD6B
:102BD000002C01400034014030B5026A056A25F03E
:102BE000100505624368846924F4E04424F44074C9
:102BF0000D6844EA052422F020028D6842EA05129D
:102C0000124DA84200D103E0114DA84207D100BFE8
:102C100022F08002CD6842EA051222F040020B4DFC
:102C2000A84202D00A4DA84209D123F4806323F4BC
:102C300000634D6943EA85038D6943EA8503436078
:102C400084614D688563026230BD0000002C014044
:102C50000034014030B5026A056A25F480750562CA
:102C60004368C46924F0700424F003040D682C4305
:102C700022F400728D6842EA0522124DA84200D16A
:102C800003E0114DA84207D100BF22F40062CD68D5
:102C900042EA052222F480620A4DA84202D00A4D7F
:102CA000A84209D123F4805323F400534D6943EA29
:102CB00005138D6943EA05134360C4614D68C5631C
:102CC000026230BD002C01400034014030B5036A7F
:102CD000056A25F4805505624468C26922F4E04221
:102CE00022F440720D6842EA052223F400538D68F5
:102CF00043EA0533084DA84202D0084DA84204D14A
:102D000024F480444D6944EA85144460C2614D68EE
:102D10000564036230BD0000002C01400034014016
:102D200030B50B461446026A056A25F001050562B6
:102D3000816921F0F00141EA041122F00A021A43EC
:102D40008161026230BD30B50B461446026A056AE5
:102D500025F010050562816921F4704141EA0431D2
:102D600022F0A00242EA03128161026230BD00003B
:102D700010B508211348FDF79BFEF8B91021114842
:102D8000FDF796FED0B920210E48FDF791FEA8B9B7
:102D900040210C48FDF78CFE80B980210948FDF7E1
:102DA00087FE58B94FF480710648FDF781FE28B9B7
:102DB0004FF400710348FDF77BFE08B1012010BD00
:102DC0000020FCE7000C014010B500F001FDFFF70A
:102DD00081FBFDF7A0FB10BD2DE9F04F85B0082168
:102DE0005648FDF765FE064610215448FDF760FE83
:102DF000804620215148FDF75BFE814640214F4827
:102E0000FDF756FE824680214C48FDF751FE834671
:102E10004FF480714948FDF74BFE04904FF4007168
:102E20004648FDF745FE074606EB08004844504477
:102E300000EB0B01049808443844C5B2002003900D
:102E400000240E2002900190F5B90722E11F3C48B2
:102E5000B0F9000000F0F0FF044604F10A0108B2E6
:102E60006322002100F0E8FF0290C4F10A0108B2D9
:102E70006322002100F0E0FF0190DDE9011000F085
:102E80000FFD05B0BDE8F08F042D07DB00202C49B5
:102E900008800C21084600F003FDF2E706EB46002F
:102EA0004000032101FB0800022101FB0900002171
:102EB00001FB0A00022101FB1B010322049802FB13
:102EC0001010062101FB170000B203900398800048
:102ED00090FBF5F000B209225142009000F0ACFFE7
:102EE000044617490C80012D12D106B987B104F1AF
:102EF0000B0108B26322002100F09EFF0290C4F192
:102F00000B0108B26322002100F096FF01900FE050
:102F100004F10E0108B26322002100F08DFF02903F
:102F2000C4F10E0108B26322002100F085FF019078
:102F3000DDE9011000F0B4FC00BFA2E7000C014085
:102F4000C000002070B505466C6A0020E085E08472
:102F50002046FEF799FF70BD00BF00BF02680C322B
:102F600052E8002F22F4907102680C3242E80013FC
:102F7000002BF3D100BF00BF00BF0268143252E83B
:102F8000002F22F001010268143242E80013002BE6
:102F9000F3D100BF016B01290ED100BF00BF026851
:102FA0000C3252E8002F22F0100102680C3242E885
:102FB0000013002BF3D100BF202180F84210002124
:102FC0000163704710B504462068C06820F04000D7
:102FD0002168C860202084F841002046FFF70EFADF
:102FE000002010BDF8B5044694F84200222875D19F
:102FF000A068B0F5805F0CD1206950B90025A66AA1
:1030000020684068C0F308003080A06A801CA0627D
:1030100015E0A56A0026A068B0F5805F03D0A0681F
:1030200028B9206918B920684068287004E0206831
:10303000406800F07F002870A06A401CA062E08D0C
:10304000401E80B2E085002846D12068C06820F08C
:1030500020002168C8602068C06820F48070216862
:10306000C8602068406920F0010021684861202084
:1030700084F8420000206063206B012826D10020E4
:10308000206300BF00BF21680C3151E8001F21F010
:10309000100021680C3141E80002002AF3D100BF82
:1030A0002068006800F0100010280AD100BF00203E
:1030B000009020680068009020684068009000BF81
:1030C00000BFA18D2046FEF7DEFE02E02046FFF79E
:1030D00037F90020F8BD01E00020FBE70220F9E706
:1030E00070B504462168096921F44051E268114332
:1030F000226811612269A1681143626941EA0205EF
:103100002168C96841F20C62914329432268D16069
:103110002168496921F44071A26911432268516113
:103120002D4A2168914202D1FDF788FE01E0FDF7AA
:1031300075FE00EBC00101EB001162689200B1FB6B
:10314000F2F100EBC00202EB001263689B00B2FBDD
:10315000F3F26423B2FBF3F202EBC20303EB0212BD
:10316000A1EB8201322202EB01116422B1FBF2F1E8
:1031700001F0F00100EBC00202EB001263689B005B
:10318000B2FBF3F26423B2FBF3F201EB021200EBA9
:10319000C00101EB001163689B00B1FBF3F100EB90
:1031A000C00303EB00136668B600B3FBF6F36426B6
:1031B000B3FBF6F303EBC30606EB0313A1EB8301AA
:1031C000322303EB01116423B1FBF3F101F00F0192
:1031D00011442268916070BD0038014010B503466B
:1031E00099629A85DA8500205864222083F842008B
:1031F000186928B11868C06840F480701C68E060E5
:103200001868406940F001001C6860611868C06877
:1032100040F020001C68E060002010BD014691F8DD
:103220004100212828D18868B0F5805F0BD108695A
:1032300048B90A6A1088C0F308000B685860086A29
:10324000801C086205E00B6A581C086218780B683D
:103250005860C88C401E80B2C88458B90868C068DD
:1032600020F080000B68D8600868C06840F040001B
:103270000B68D860002070470220FCE710B50248B8
:10328000FEF704FE10BD0000F401002010B5024856
:10329000FEF7FCFD10BD00003C02002000BFFEE771
:1032A00002480068C0F30220704700000CED00E007
:1032B00010B5002804DB0A07130E054A135406E074
:1032C0000A07140E034A00F00F031B1FD45410BD4D
:1032D00000E400E018ED00E002E008C8121F08C199
:1032E000002AFAD170477047002001E001C1121F87
:1032F000002AFBD170470146002901DA4842704795
:103300000846FCE72DE9FC5F81468A4614461D46C7
:1033100043494846FCF73CFF83465146FCF78AFF89
:10332000019040490198FDF727F804D23E490198E1
:10333000FCF780FF01903D490198FDF713F804D296
:1033400039490198FCF724FF01904FF000084FF035
:1033500080410198FDF710F805D34FF040410198E6
:10336000FDF700F80CD285F0004B4FF07A51019830
:10337000FCF766FF2A465946009000F0D1F98046D6
:103380004FF07F5241462A48006800F0A1F82849D2
:103390000860284804602848046028480068FCF752
:1033A000BFFF2449486026480068FCF7B9FF22495E
:1033B00048602048FFF76CFA1F48FFF769FA1D497B
:1033C00088681B490968FCF7E3FE00210090FCF7C0
:1033D000DFFE8346FCF7ADFF06B217498868144943
:1033E0000968FCF727FF00210090FCF723FF8346C4
:1033F000FCF79FFF07B21348007800280ADD102E63
:1034000000DA1026102F00DA10270E480078401E30
:103410000C4908703946304600F042FABDE8FC9F7E
:10342000CDCC0C40000034430000B443000034C352
:10343000A800002028000020640000201C000020BC
:1034400020000020AF0000202DE9F04704460D4683
:103450002146284600F01CFD07461949FCF7F0FEFE
:1034600006464FF083421749304600F059F90646A8
:1034700000213046FCF780FF06D213493046FCF7A6
:1034800071FF01D2104E0AE000213046FCF76AFFBE
:1034900005D20E493046FCF76FFF00D20B4E304686
:1034A000FCF747FF07B286F000494846FCF741FFAA
:1034B0000FFA80F83946404600F0F2F9BDE8F0878F
:1034C0003333B33E000080C100002041000020C122
:1034D0002DE9F04106460C46154629463046FCF7D4
:1034E00057FE07462146FCF73DFF05D229463046E8
:1034F000FCF74EFEBDE8F08129463046FCF79AFE07
:1035000007462146FCF738FF04D229463046FCF72F
:1035100091FEEFE72046EDE72DE9F0470446154917
:103520002046FCF735FE074600F0CAF905460021A3
:103530002846FCF721FF04D80F492846FCF77AFEFD
:1035400003E00D492846FCF723FE06460B4A0C49CA
:10355000304600F0E5F8804641460A48FCF770FE28
:1035600081460949FCF769FE074600F0A9F9BDE864
:10357000F0870000CDCC0C40000034430000204117
:10358000000020C19A99193E000013C32DE9F047AD
:1035900004460E492046FCF7FBFD074600F090F973
:1035A00005462E460A4A0B49304600F0B9F88046D7
:1035B00041460948FCF744FE81460849FCF7E8FD0E
:1035C000074600F07DF9BDE8F0870000CDCC0C4047
:1035D00000002041000020C1AE47E13D666604C204
:1035E00010B5042007490870012000F0BBFA002044
:1035F000054908600549087004200549087000F075
:10360000A1FA10BDA1000020A8000020AE000020FB
:10361000AF00002010B501200749087000F0A2FAA1
:103620000020064908600649087004200549087012
:1036300000F088FA10BD0000A1000020A8000020C2
:10364000AE000020AF00002070B505460C460748CC
:103650000570204600F086FA0020054908700549EB
:1036600008600549086000F06DFA70BDA2000020F6
:10367000AF000020B8000020A800002010B50446CC
:10368000032009490870002000F06CFA0020074967
:103690000860074908702046FFF73EFF05490860AB
:1036A00000F050FA10BD0000A1000020A80000208A
:1036B000AE000020B400002010B5044600200849E8
:1036C000087000F04FFA00200649086006490870AB
:1036D0002046FFF75BFF0549086000F033FA10BD94
:1036E000A1000020A8000020AE000020B0000020B3
:1036F00010B500200749087006200749087000F03F
:10370000D9F800F01FFA0020044908600F2000F0EB
:103710009FFB10BDA0000020A1000020A8000020F9
:1037200070B506460D46144621463046FCF724FE89
:1037300001D2204670BD29463046FCF713FE01D267
:103740002846F7E73046F5E710B5FFF711FB48B11B
:103750000A480078012808DA08480078401C074920
:10376000087002E00020054908700448007801282C
:1037700001DB012010BD0020FCE70000A5000020B7
:10378000FDF7B6F9FFF71FF9FEF7BAFEFCF7C4FE26
:10379000FEF736FFFEF78CFFFEF7C8FFFFF704F8D1
:1037A000FFF73AF8FFF754F80848FDF79BFE00F0E2
:1037B0000FF8FEF737FEFFF707FBFCF7ABFE00F054
:1037C00079F801E000F09AF9FCE70000AC01002074
:1037D00010B5FEF795FEFEF713FF08210B48FEF724
:1037E0003FFA0C210948FEF73BFA00210848FEF792
:1037F00037F804210648FEF733F800210548FEF7A4
:103800002FF804210348FEF72BF810BDD400002048
:103810001C0100206401002010B50446002C0DDBC3
:10382000002210210C48FDF74BF9012220210A4803
:10383000FDF746F92046FFF79FF80CE00122102122
:103840000548FDF73DF9002220210348FDF738F92E
:103850006042FFF791F810BD0008014010B5044622
:10386000002C0DDB012240210C48FDF729F9002234
:1038700080210A48FDF724F92046FFF783F80CE081
:10388000002240210548FDF71BF901228021034851
:10389000FDF716F96042FFF775F810BD000801400A
:1038A00070B505460C462846FFF7B6FF2046FFF7E1
:1038B000D5FF70BD10B500210846FFF7F1FF10BD20
:1038C00010B504460A492046FCF756FD04D20949C2
:1038D0002046FCF7AFFC044607492046FCF742FDB2
:1038E00004D204492046FCF753FC0446204610BD90
:1038F000000034430000B443000034C310B5044654
:103900001848007807282BD2DFE800F0040A1316C5
:103910001C242700144801682046FFF795FD1FE08E
:103920004FF08243114A104801682046FFF7EAFC35
:1039300016E0FFF751FA13E00D4801682046FFF743
:1039400083FD0DE00B4B0C4A094801682046FFF748
:10395000D9FC05E0FFF740FA02E0FFF7ABFF00BF3C
:1039600000BF10BDA1000020B00000200000E84111
:10397000B40000200000A0400000B04110B5044693
:103980005148007807280DD2DFE800F0040D3249D5
:10399000527799004D480168204600F0A9FA08B115
:1039A000FFF738FE8EE04A480078002805DD4848D9
:1039B0000078401E4649087084E0FFF7C5FE48B114
:1039C000022041490870042000F042FA002000F073
:1039D000C9F877E03F4A3D480168204600F06CFA9C
:1039E00028B12046FFF768FE00203B49087069E0D7
:1039F00000F03AFA3948007804280FDB38492046AD
:103A0000FCF7BAFC04D337492046FCF7ABFC05D2DF
:103A1000042000F01DFA2046FFF730FE52E0324845
:103A20000168204600F064FA08B1FFF7D9FD49E0CB
:103A300027480078002805DD25480078401E2449E5
:103A400008703FE0FFF780FE60B105201E49087056
:103A5000042000F0FDF9002000F084F80020234944
:103A600008602FE0224A20480168204600F024FA2E
:103A700010B12046FFF702FE24E000F0F5F91B48E4
:103A8000006850281ADB15480078042816DB19480E
:103A90000078401C17490870042000F0D9F9002074
:103AA00000F060F81348007813490978884202DB77
:103AB000FFF71EFE02E02046FFF7FEFD02E0FFF7E3
:103AC00017FE00BF00BF10BDA1000020B000002005
:103AD000A40000200000D841A5000020A300002081
:103AE00000000243000016C3B4000020B80000200C
:103AF0000000A841AC000020AD00002010B5104827
:103B0000007800B110BDFCF78DFC18B1012000F069
:103B100085F813E0FCF7A4FC18B1022000F07EF851
:103B20000CE0FCF7BBFC18B1032000F077F805E0CF
:103B3000FCF7D2FC10B1042000F070F800BFE1E700
:103B4000A0000020002005498861C86108628860E3
:103B500003498861C86108628860704728000020B6
:103B6000640000200021034A1170034A11700349C8
:103B700008707047A3000020A5000020A4000020CA
:103B800010B5062015490870002015490870FFF788
:103B9000E9FF002013490860134908700420134905
:103BA000087013481349086013481449086000203E
:103BB00013490870134908601349086013490860E5
:103BC00013490860FFF7BEFF0020124909684862E8
:103BD000114909684862FFF76DFE10BDA100002081
:103BE000A2000020A8000020AC000020AD000020B2
:103BF000666604C2B0000020000013C3B4000020B9
:103C0000AE000020B8000020240000201C0000208E
:103C1000200000201C0100206401002010B5044693
:103C200072B6204600F002F862B610BD10B5044628
:103C3000FFF7A6FF012C06D0022C0ED0032C19D0C2
:103C4000042C2FD123E00120FFF78CFF012018491D
:103C50000870042000F0FCF828E0002015490870E6
:103C60000120FFF77FFF022011490870042000F0B7
:103C7000EFF81BE000201049087001200F49087080
:103C800003200B490870042000F0E2F80EE0002049
:103C9000094908700420094908700549087000F0B6
:103CA000D7F803E000200249087000BF00BF10BD34
:103CB000A0000020A2000020A1000020AD000020F4
:103CC00010B504464FF082430D4A00212046FFF70D
:103CD00019FB0C480078002808DD0A480078401ECF
:103CE0000849087000200849087010BDFFF72CFD36
:103CF00020B1042000F0ACF8FFF7FAFC00BFF4E7B5
:103D00000000E841A4000020A500002070B5044692
:103D10003F48007830B1012823D002283BD0032847
:103D200073D164E04FF082433A4A00212046FFF706
:103D3000E9FA39480078002808DD37480078401E45
:103D4000354908700020354908705EE0FFF7FCFC3B
:103D500030B1042000F07CF800210120FFF774FC52
:103D600053E0FFF739F800F07FF82D480078042879
:103D700010DB2C492046FCF7FFFA04D32A492046E1
:103D8000FCF7F0FA06D2042000F062F801210220CC
:103D9000FFF75AFC39E000212046FCF7EDFA01D884
:103DA000224800E0224805464FF08243194A29463E
:103DB0002046FFF7A7FA18480078002808DD1648C3
:103DC0000078401E144908700020144908701CE057
:103DD00018480068B42809DBFFF7B6FC30B10420AE
:103DE00000F036F800210320FFF72EFC0DE0FEF76F
:103DF000F3FF00F039F80A4800780A2804DB0420B1
:103E000000F026F8FFF774FC00BF00BF70BD000093
:103E1000A20000200000E841A4000020A50000202E
:103E2000A300002000000243000016C3000034433A
:103E3000000034C3B80000200346934201DD104661
:103E400070478B4201DA0846FAE71846F8E70000A7
:103E500010B5044603480480FEF748FBFCF766FBF8
:103E600010BD0000BC00002010B5FEF781FF18B1A6
:103E700000200649087008E004480078C82804DAE1
:103E800002480078401C0149087010BDA3000020C2
:103E90002DE9F04104460D4606492846FCF778F91D
:103EA00007462146FCF7C9F906463046FFF708FDEC
:103EB000BDE8F081CDCC0C402DE9F04105460E4621
:103EC000144629463046FFF7E3FF80462146404628
:103ED000FCF752FA06D384F0004741463846FCF717
:103EE0004BFA02D20120BDE8F0810020FBE7000080
:103EF00070B504460D4621462846FFF7C9FF064621
:103F00000F493046FCF72EFA0ED20E493046FCF728
:103F100033FA09D20C480078032808DA0A480078F6
:103F2000401C0949087002E0002007490870064853
:103F30000078032801DB012070BD0020FCE70000B1
:103F400000004040000040C0AE0000200203040515
:103F5000060708090A0B0C0D0E0F101001020000D5
:103F60000000000000000102030406070809000029
:103F70000000010203040000983F00080000002038
:103F8000D4000000D83200086C400008D4000020A3
:103F9000B4050000E8320008000000000000000046
:103FA0000000000000000000000000000000000011
:103FB0000000000000000000000000000000000001
:103FC0000000704100000000000000000000004000
:103FD000CDCC4C3D000000000000000000000000BF
:103FE000000000000000F0410000F0C10000A0420D
:103FF0000000A0C20000F0410000A040000070419D
:10400000000000000000000000000040CDCC4C3D4E
:1040100000000000000000000000000000000000A0
:104020000000F0410000F0C10000A0420000A0C26A
:104030000000F0410000A040000600000000000069
:10404000000000000004000000000000000000006C
:104050000000000000000000000000000000000060
:0C406000100000000100000000127A00B7
:0400000508000131BD
:00000001FF
